{
  "contractName": "PersonRecord",
  "abi": [
    {
      "inputs": [
        {
          "name": "_tokenAddress",
          "type": "address"
        }
      ],
      "payable": false,
      "stateMutability": "nonpayable",
      "type": "constructor"
    },
    {
      "anonymous": false,
      "inputs": [
        {
          "indexed": false,
          "name": "citizenId",
          "type": "uint256"
        },
        {
          "indexed": false,
          "name": "dateGetVaccine",
          "type": "uint256"
        },
        {
          "indexed": false,
          "name": "owner",
          "type": "address"
        }
      ],
      "name": "AddedPerson",
      "type": "event"
    },
    {
      "constant": false,
      "inputs": [
        {
          "name": "_citizenId",
          "type": "uint256"
        },
        {
          "name": "_firstName",
          "type": "string"
        },
        {
          "name": "_lastName",
          "type": "string"
        },
        {
          "name": "_age",
          "type": "uint256"
        },
        {
          "name": "_gender",
          "type": "string"
        },
        {
          "name": "_dateGetVaccine",
          "type": "uint256"
        }
      ],
      "name": "addPerson",
      "outputs": [],
      "payable": false,
      "stateMutability": "nonpayable",
      "type": "function"
    },
    {
      "constant": true,
      "inputs": [
        {
          "name": "_citizenId",
          "type": "uint256"
        }
      ],
      "name": "getPerson",
      "outputs": [
        {
          "name": "firstName",
          "type": "string"
        },
        {
          "name": "lastName",
          "type": "string"
        },
        {
          "name": "age",
          "type": "uint256"
        },
        {
          "name": "gender",
          "type": "string"
        },
        {
          "name": "dateGetVaccine",
          "type": "uint256"
        },
        {
          "name": "owner",
          "type": "address"
        }
      ],
      "payable": false,
      "stateMutability": "view",
      "type": "function"
    }
  ],
  "bytecode": "0x608060405234801561001057600080fd5b50604051602080610a218339810180604052602081101561003057600080fd5b810190808051906020019092919050505080600260006101000a81548173ffffffffffffffffffffffffffffffffffffffff021916908373ffffffffffffffffffffffffffffffffffffffff1602179055505061098f806100926000396000f3fe608060405260043610610046576000357c010000000000000000000000000000000000000000000000000000000090048063246982c41461004b57806372d8f5a514610218575b600080fd5b34801561005757600080fd5b506100846004803603602081101561006e57600080fd5b810190808035906020019092919050505061042c565b604051808060200180602001878152602001806020018681526020018573ffffffffffffffffffffffffffffffffffffffff1673ffffffffffffffffffffffffffffffffffffffff16815260200184810384528a818151815260200191508051906020019080838360005b8381101561010a5780820151818401526020810190506100ef565b50505050905090810190601f1680156101375780820380516001836020036101000a031916815260200191505b50848103835289818151815260200191508051906020019080838360005b83811015610170578082015181840152602081019050610155565b50505050905090810190601f16801561019d5780820380516001836020036101000a031916815260200191505b50848103825287818151815260200191508051906020019080838360005b838110156101d65780820151818401526020810190506101bb565b50505050905090810190601f1680156102035780820380516001836020036101000a031916815260200191505b50995050505050505050505060405180910390f35b34801561022457600080fd5b5061042a600480360360c081101561023b57600080fd5b81019080803590602001909291908035906020019064010000000081111561026257600080fd5b82018360208201111561027457600080fd5b8035906020019184600183028401116401000000008311171561029657600080fd5b91908080601f016020809104026020016040519081016040528093929190818152602001838380828437600081840152601f19601f820116905080830192505050505050509192919290803590602001906401000000008111156102f957600080fd5b82018360208201111561030b57600080fd5b8035906020019184600183028401116401000000008311171561032d57600080fd5b91908080601f016020809104026020016040519081016040528093929190818152602001838380828437600081840152601f19601f820116905080830192505050505050509192919290803590602001909291908035906020019064010000000081111561039a57600080fd5b8201836020820111156103ac57600080fd5b803590602001918460018302840111640100000000831117156103ce57600080fd5b91908080601f016020809104026020016040519081016040528093929190818152602001838380828437600081840152601f19601f820116905080830192505050505050509192919290803590602001909291905050506106eb565b005b6060806000606060008061043e610871565b60008089815260200190815260200160002060c06040519081016040529081600082018054600181600116156101000203166002900480601f0160208091040260200160405190810160405280929190818152602001828054600181600116156101000203166002900480156104f55780601f106104ca576101008083540402835291602001916104f5565b820191906000526020600020905b8154815290600101906020018083116104d857829003601f168201915b50505050508152602001600182018054600181600116156101000203166002900480601f0160208091040260200160405190810160405280929190818152602001828054600181600116156101000203166002900480156105975780601f1061056c57610100808354040283529160200191610597565b820191906000526020600020905b81548152906001019060200180831161057a57829003601f168201915b5050505050815260200160028201548152602001600382018054600181600116156101000203166002900480601f0160208091040260200160405190810160405280929190818152602001828054600181600116156101000203166002900480156106435780601f1061061857610100808354040283529160200191610643565b820191906000526020600020905b81548152906001019060200180831161062657829003601f168201915b50505050508152602001600482015481526020016005820160009054906101000a900473ffffffffffffffffffffffffffffffffffffffff1673ffffffffffffffffffffffffffffffffffffffff1673ffffffffffffffffffffffffffffffffffffffff16815250509050806000015181602001518260400151836060015184608001518560a001518595508494508292509650965096509650965096505091939550919395565b60c0604051908101604052808681526020018581526020018481526020018381526020018281526020013373ffffffffffffffffffffffffffffffffffffffff16815250600080888152602001908152602001600020600082015181600001908051906020019061075d9291906108be565b50602082015181600101908051906020019061077a9291906108be565b506040820151816002015560608201518160030190805190602001906107a19291906108be565b506080820151816004015560a08201518160050160006101000a81548173ffffffffffffffffffffffffffffffffffffffff021916908373ffffffffffffffffffffffffffffffffffffffff1602179055509050507f5060c6c2fc6d5fbe41470db4dce9515314ecc78142d9da6fcb108d42052066c5868233604051808481526020018381526020018273ffffffffffffffffffffffffffffffffffffffff1673ffffffffffffffffffffffffffffffffffffffff168152602001935050505060405180910390a1505050505050565b60c0604051908101604052806060815260200160608152602001600081526020016060815260200160008152602001600073ffffffffffffffffffffffffffffffffffffffff1681525090565b828054600181600116156101000203166002900490600052602060002090601f016020900481019282601f106108ff57805160ff191683800117855561092d565b8280016001018555821561092d579182015b8281111561092c578251825591602001919060010190610911565b5b50905061093a919061093e565b5090565b61096091905b8082111561095c576000816000905550600101610944565b5090565b9056fea165627a7a7230582083cef9147b88542605453d20e5c9e388fc4bca3083009fe19c726b82c0b0ae7c0029",
  "source": "// SPDX-License-Identifier: MIT\r\npragma solidity >=0.4.22 <0.9.0;\r\n\r\nimport \"./Token.sol\";\r\n\r\ncontract PersonRecord {\r\n    struct Person {\r\n    \r\n    string firstName;\r\n    string lastName;\r\n    uint age;\r\n    string gender;\r\n    uint256 dateGetVaccine;\r\n    address owner;\r\n    }\r\n    event AddedPerson(uint256 citizenId, uint256 dateGetVaccine, address owner);\r\n    // event getVaccine(string citizenid, uint256 dateGetVaccine);\r\n    mapping (uint256 => Person) persons;\r\n    mapping (uint256 => address[]) receiver;\r\n    Token token;\r\n\r\n    constructor (address _tokenAddress) public {\r\n        token = Token(_tokenAddress);\r\n    }\r\n\r\n    \r\n\r\n    function addPerson(uint256 _citizenId, string memory _firstName, string memory _lastName, uint _age, string memory _gender, uint256 _dateGetVaccine) public {\r\n        persons[_citizenId] = Person({\r\n            \r\n            firstName: _firstName,\r\n            lastName: _lastName,\r\n            age: _age,\r\n            gender: _gender,\r\n            dateGetVaccine: _dateGetVaccine,\r\n            owner: msg.sender\r\n        });\r\n        emit AddedPerson(_citizenId, _dateGetVaccine,msg.sender);\r\n    }\r\n\r\n    // function getvaccine (string memory _citizenid, uint256 _dateGetVaccine) public{\r\n\r\n    //     Person storage person = persons[_citizenid];\r\n    //     emit getVaccine(_citizenid, _dateGetVaccine);\r\n    // }\r\n    function getPerson(uint256 _citizenId) public view returns (string memory firstName,string memory lastName, uint age, string memory gender, uint256 dateGetVaccine, address owner) {\r\n        Person memory person = persons[_citizenId];\r\n        return (person.firstName,person.lastName,person.age,person.gender,person.dateGetVaccine,person.owner);\r\n    }\r\n}",
  "sourcePath": "E:/projectjob1/contracts/PersonRecord.sol",
  "compiler": {
    "name": "solc",
    "version": "0.5.1+commit.c8a2cb62.Emscripten.clang"
  },
  "schemaVersion": "3.3.4",
  "updatedAt": "2021-04-06T16:37:43.386Z",
  "networkType": "ethereum",
  "devdoc": {
    "methods": {}
  },
  "userdoc": {
    "methods": {}
  }
}