{
  "contractName": "PersonRecord",
  "abi": [
    {
      "inputs": [
        {
          "name": "_tokenAddress",
          "type": "address"
        }
      ],
      "payable": false,
      "stateMutability": "nonpayable",
      "type": "constructor"
    },
    {
      "anonymous": false,
      "inputs": [
        {
          "indexed": false,
          "name": "personid",
          "type": "uint256"
        },
        {
          "indexed": false,
          "name": "citizenId",
          "type": "string"
        },
        {
          "indexed": false,
          "name": "firstName",
          "type": "string"
        },
        {
          "indexed": false,
          "name": "lastName",
          "type": "string"
        },
        {
          "indexed": false,
          "name": "age",
          "type": "uint256"
        },
        {
          "indexed": false,
          "name": "gender",
          "type": "string"
        },
        {
          "indexed": false,
          "name": "dateGetVaccine",
          "type": "uint256"
        },
        {
          "indexed": false,
          "name": "owner",
          "type": "address"
        }
      ],
      "name": "AddedPerson",
      "type": "event"
    },
    {
      "constant": false,
      "inputs": [
        {
          "name": "_pid",
          "type": "uint256"
        },
        {
          "name": "_citizenId",
          "type": "string"
        },
        {
          "name": "_firstName",
          "type": "string"
        },
        {
          "name": "_lastName",
          "type": "string"
        },
        {
          "name": "_age",
          "type": "uint256"
        },
        {
          "name": "_gender",
          "type": "string"
        },
        {
          "name": "_dateGetVaccine",
          "type": "uint256"
        }
      ],
      "name": "addPerson",
      "outputs": [],
      "payable": false,
      "stateMutability": "nonpayable",
      "type": "function"
    },
    {
      "constant": true,
      "inputs": [
        {
          "name": "_personid",
          "type": "uint256"
        }
      ],
      "name": "getPerson",
      "outputs": [
        {
          "name": "citizenId",
          "type": "string"
        },
        {
          "name": "firstName",
          "type": "string"
        },
        {
          "name": "lastName",
          "type": "string"
        },
        {
          "name": "age",
          "type": "uint256"
        },
        {
          "name": "gender",
          "type": "string"
        },
        {
          "name": "dateGetVaccine",
          "type": "uint256"
        },
        {
          "name": "owner",
          "type": "address"
        }
      ],
      "payable": false,
      "stateMutability": "view",
      "type": "function"
    }
  ],
  "bytecode": "0x608060405234801561001057600080fd5b50604051602080610dbb8339810180604052602081101561003057600080fd5b810190808051906020019092919050505080600260006101000a81548173ffffffffffffffffffffffffffffffffffffffff021916908373ffffffffffffffffffffffffffffffffffffffff16021790555050610d29806100926000396000f3fe608060405260043610610046576000357c0100000000000000000000000000000000000000000000000000000000900480631a4052be1461004b578063246982c4146102f6575b600080fd5b34801561005757600080fd5b506102f4600480360360e081101561006e57600080fd5b81019080803590602001909291908035906020019064010000000081111561009557600080fd5b8201836020820111156100a757600080fd5b803590602001918460018302840111640100000000831117156100c957600080fd5b91908080601f016020809104026020016040519081016040528093929190818152602001838380828437600081840152601f19601f8201169050808301925050505050505091929192908035906020019064010000000081111561012c57600080fd5b82018360208201111561013e57600080fd5b8035906020019184600183028401116401000000008311171561016057600080fd5b91908080601f016020809104026020016040519081016040528093929190818152602001838380828437600081840152601f19601f820116905080830192505050505050509192919290803590602001906401000000008111156101c357600080fd5b8201836020820111156101d557600080fd5b803590602001918460018302840111640100000000831117156101f757600080fd5b91908080601f016020809104026020016040519081016040528093929190818152602001838380828437600081840152601f19601f820116905080830192505050505050509192919290803590602001909291908035906020019064010000000081111561026457600080fd5b82018360208201111561027657600080fd5b8035906020019184600183028401116401000000008311171561029857600080fd5b91908080601f016020809104026020016040519081016040528093929190818152602001838380828437600081840152601f19601f8201169050808301925050505050505091929192908035906020019092919050505061052f565b005b34801561030257600080fd5b5061032f6004803603602081101561031957600080fd5b8101908080359060200190929190505050610895565b60405180806020018060200180602001888152602001806020018781526020018673ffffffffffffffffffffffffffffffffffffffff1673ffffffffffffffffffffffffffffffffffffffff16815260200185810385528c818151815260200191508051906020019080838360005b838110156103b957808201518184015260208101905061039e565b50505050905090810190601f1680156103e65780820380516001836020036101000a031916815260200191505b5085810384528b818151815260200191508051906020019080838360005b8381101561041f578082015181840152602081019050610404565b50505050905090810190601f16801561044c5780820380516001836020036101000a031916815260200191505b5085810383528a818151815260200191508051906020019080838360005b8381101561048557808201518184015260208101905061046a565b50505050905090810190601f1680156104b25780820380516001836020036101000a031916815260200191505b50858103825288818151815260200191508051906020019080838360005b838110156104eb5780820151818401526020810190506104d0565b50505050905090810190601f1680156105185780820380516001836020036101000a031916815260200191505b509b50505050505050505050505060405180910390f35b60e0604051908101604052808781526020018681526020018581526020018481526020018381526020018281526020013373ffffffffffffffffffffffffffffffffffffffff1681525060008089815260200190815260200160002060008201518160000190805190602001906105a7929190610c04565b5060208201518160010190805190602001906105c4929190610c04565b5060408201518160020190805190602001906105e1929190610c04565b50606082015181600301556080820151816004019080519060200190610608929190610c04565b5060a0820151816005015560c08201518160060160006101000a81548173ffffffffffffffffffffffffffffffffffffffff021916908373ffffffffffffffffffffffffffffffffffffffff1602179055509050507f9095baa0ca3bbe2a218aef4cbc88e1eb1be2c1874d316acd7d8af7dedbc478c7878787878787873360405180898152602001806020018060200180602001888152602001806020018781526020018673ffffffffffffffffffffffffffffffffffffffff1673ffffffffffffffffffffffffffffffffffffffff16815260200185810385528c818151815260200191508051906020019080838360005b838110156107165780820151818401526020810190506106fb565b50505050905090810190601f1680156107435780820380516001836020036101000a031916815260200191505b5085810384528b818151815260200191508051906020019080838360005b8381101561077c578082015181840152602081019050610761565b50505050905090810190601f1680156107a95780820380516001836020036101000a031916815260200191505b5085810383528a818151815260200191508051906020019080838360005b838110156107e25780820151818401526020810190506107c7565b50505050905090810190601f16801561080f5780820380516001836020036101000a031916815260200191505b50858103825288818151815260200191508051906020019080838360005b8381101561084857808201518184015260208101905061082d565b50505050905090810190601f1680156108755780820380516001836020036101000a031916815260200191505b509c5050505050505050505050505060405180910390a150505050505050565b6060806060600060606000806108a9610c84565b6000808a815260200190815260200160002060e06040519081016040529081600082018054600181600116156101000203166002900480601f0160208091040260200160405190810160405280929190818152602001828054600181600116156101000203166002900480156109605780601f1061093557610100808354040283529160200191610960565b820191906000526020600020905b81548152906001019060200180831161094357829003601f168201915b50505050508152602001600182018054600181600116156101000203166002900480601f016020809104026020016040519081016040528092919081815260200182805460018160011615610100020316600290048015610a025780601f106109d757610100808354040283529160200191610a02565b820191906000526020600020905b8154815290600101906020018083116109e557829003601f168201915b50505050508152602001600282018054600181600116156101000203166002900480601f016020809104026020016040519081016040528092919081815260200182805460018160011615610100020316600290048015610aa45780601f10610a7957610100808354040283529160200191610aa4565b820191906000526020600020905b815481529060010190602001808311610a8757829003601f168201915b5050505050815260200160038201548152602001600482018054600181600116156101000203166002900480601f016020809104026020016040519081016040528092919081815260200182805460018160011615610100020316600290048015610b505780601f10610b2557610100808354040283529160200191610b50565b820191906000526020600020905b815481529060010190602001808311610b3357829003601f168201915b50505050508152602001600582015481526020016006820160009054906101000a900473ffffffffffffffffffffffffffffffffffffffff1673ffffffffffffffffffffffffffffffffffffffff1673ffffffffffffffffffffffffffffffffffffffff16815250509050806000015181602001518260400151836060015184608001518560a001518660c00151869650859550849450829250975097509750975097509750975050919395979092949650565b828054600181600116156101000203166002900490600052602060002090601f016020900481019282601f10610c4557805160ff1916838001178555610c73565b82800160010185558215610c73579182015b82811115610c72578251825591602001919060010190610c57565b5b509050610c809190610cd8565b5090565b60e060405190810160405280606081526020016060815260200160608152602001600081526020016060815260200160008152602001600073ffffffffffffffffffffffffffffffffffffffff1681525090565b610cfa91905b80821115610cf6576000816000905550600101610cde565b5090565b9056fea165627a7a72305820c93f94872100f88f7dd0bad5558662e3ef382e7c11c5dbaf59fb427a2889cc800029",
  "source": "// SPDX-License-Identifier: MIT\r\npragma solidity >=0.4.22 <0.9.0;\r\n\r\nimport \"./Token.sol\";\r\n\r\ncontract PersonRecord {\r\n    struct Person {\r\n    string citizenId;\r\n    string firstName;\r\n    string lastName;\r\n    uint age;\r\n    string gender;\r\n    uint256 dateGetVaccine;\r\n    address owner;\r\n    }\r\n    event AddedPerson(uint256 personid,string citizenId,string firstName,string lastName, uint age, string gender, uint256 dateGetVaccine, address owner);\r\n    // event getVaccine(string citizenid, uint256 dateGetVaccine);\r\n    mapping (uint256 => Person) persons;\r\n    mapping (uint256 => address[]) receiver;\r\n    Token token;\r\n\r\n    constructor (address _tokenAddress) public {\r\n        token = Token(_tokenAddress);\r\n    }\r\n\r\n    \r\n\r\n    function addPerson(uint256 _pid, string memory _citizenId, string memory _firstName, string memory _lastName, uint _age, string memory _gender, uint256 _dateGetVaccine ) public {\r\n        persons[_pid] = Person({\r\n            citizenId: _citizenId,\r\n            firstName: _firstName,\r\n            lastName: _lastName,\r\n            age: _age,\r\n            gender: _gender,\r\n            dateGetVaccine: _dateGetVaccine,\r\n            owner: msg.sender\r\n        });\r\n        emit AddedPerson(_pid, _citizenId, _firstName, _lastName, _age, _gender, _dateGetVaccine,msg.sender);\r\n    }\r\n\r\n    // function getvaccine (string memory _citizenid, uint256 _dateGetVaccine) public{\r\n\r\n    //     Person storage person = persons[_citizenid];\r\n    //     emit getVaccine(_citizenid, _dateGetVaccine);\r\n    // }\r\n    function getPerson(uint256 _personid) public view returns (string memory citizenId,string memory firstName,string memory lastName, uint age, string memory gender, uint256 dateGetVaccine, address owner) {\r\n        Person memory person = persons[_personid];\r\n        return (person.citizenId,person.firstName,person.lastName,person.age,person.gender,person.dateGetVaccine,person.owner);\r\n    }\r\n}",
  "sourcePath": "E:/projectjob1/contracts/PersonRecord.sol",
  "compiler": {
    "name": "solc",
    "version": "0.5.1+commit.c8a2cb62.Emscripten.clang"
  },
  "schemaVersion": "3.3.4",
  "updatedAt": "2021-03-05T06:55:44.758Z",
  "networkType": "ethereum",
  "devdoc": {
    "methods": {}
  },
  "userdoc": {
    "methods": {}
  }
}